:1000000000308A0065280000FF00030E8301A10074
:100010000A08A0008A010408A2007708A300780853
:10002000A4007908A5007A08A600831383128C30F7
:100030008400801D1D288C192E2822088400230886
:10004000F7002408F8002508F9002608FA0020081F
:100050008A00210E8300FF0E7F0E09008A110A120A
:1000600031288316941A3C288312A9018316141D83
:100070003C288312A917831683122908A90AAD0008
:100080002D087F3C031C4C2814138316141C46288F
:10009000831213081416A8008C118A110A121D2845
:1000A0002C30840083130008031964280130F80001
:1000B000F701F70B5928F80B58284A30F700F70BCF
:1000C0005F286228800B5628080003081F39830028
:1000D000613083168F0090010F08FF308312A70054
:1000E000A71527088316870083122716270883166B
:1000F000870010309300093083129400FF3083167C
:100100009300363083129400831611149117033034
:100110008312A900831603170908C0398900031345
:100120001F129F1200300317880083128701880175
:1001300089018313831603138C15C03083128B043B
:1001400000308316880061308F0090010F08643002
:100150008312AC00502088010814280BC728AB017B
:10016000AA01AB08031DC6282A08C83C031CC628E0
:100170000810881408150330AC0050200811033013
:10018000AC005020AA0A0319AB0AB128A801AC2878
:0201900063000A
:04400E00E42FFF3F5D
:00000001FF
;PIC16F887
;CRC=73C6  CREATED="11-abr.-21 21:46"
